{
  "abi": [
    {
      "inputs": [
        {
          "internalType": "address",
          "name": "initialOwner",
          "type": "address"
        }
      ],
      "stateMutability": "nonpayable",
      "type": "constructor"
    },
    {
      "inputs": [
        {
          "internalType": "address",
          "name": "sender",
          "type": "address"
        },
        {
          "internalType": "uint256",
          "name": "tokenId",
          "type": "uint256"
        },
        {
          "internalType": "address",
          "name": "owner",
          "type": "address"
        }
      ],
      "name": "ERC721IncorrectOwner",
      "type": "error"
    },
    {
      "inputs": [
        {
          "internalType": "address",
          "name": "operator",
          "type": "address"
        },
        {
          "internalType": "uint256",
          "name": "tokenId",
          "type": "uint256"
        }
      ],
      "name": "ERC721InsufficientApproval",
      "type": "error"
    },
    {
      "inputs": [
        {
          "internalType": "address",
          "name": "approver",
          "type": "address"
        }
      ],
      "name": "ERC721InvalidApprover",
      "type": "error"
    },
    {
      "inputs": [
        {
          "internalType": "address",
          "name": "operator",
          "type": "address"
        }
      ],
      "name": "ERC721InvalidOperator",
      "type": "error"
    },
    {
      "inputs": [
        {
          "internalType": "address",
          "name": "owner",
          "type": "address"
        }
      ],
      "name": "ERC721InvalidOwner",
      "type": "error"
    },
    {
      "inputs": [
        {
          "internalType": "address",
          "name": "receiver",
          "type": "address"
        }
      ],
      "name": "ERC721InvalidReceiver",
      "type": "error"
    },
    {
      "inputs": [
        {
          "internalType": "address",
          "name": "sender",
          "type": "address"
        }
      ],
      "name": "ERC721InvalidSender",
      "type": "error"
    },
    {
      "inputs": [
        {
          "internalType": "uint256",
          "name": "tokenId",
          "type": "uint256"
        }
      ],
      "name": "ERC721NonexistentToken",
      "type": "error"
    },
    {
      "inputs": [
        {
          "internalType": "address",
          "name": "owner",
          "type": "address"
        }
      ],
      "name": "OwnableInvalidOwner",
      "type": "error"
    },
    {
      "inputs": [
        {
          "internalType": "address",
          "name": "account",
          "type": "address"
        }
      ],
      "name": "OwnableUnauthorizedAccount",
      "type": "error"
    },
    {
      "anonymous": false,
      "inputs": [
        {
          "indexed": true,
          "internalType": "address",
          "name": "owner",
          "type": "address"
        },
        {
          "indexed": true,
          "internalType": "address",
          "name": "approved",
          "type": "address"
        },
        {
          "indexed": true,
          "internalType": "uint256",
          "name": "tokenId",
          "type": "uint256"
        }
      ],
      "name": "Approval",
      "type": "event"
    },
    {
      "anonymous": false,
      "inputs": [
        {
          "indexed": true,
          "internalType": "address",
          "name": "owner",
          "type": "address"
        },
        {
          "indexed": true,
          "internalType": "address",
          "name": "operator",
          "type": "address"
        },
        {
          "indexed": false,
          "internalType": "bool",
          "name": "approved",
          "type": "bool"
        }
      ],
      "name": "ApprovalForAll",
      "type": "event"
    },
    {
      "anonymous": false,
      "inputs": [
        {
          "indexed": true,
          "internalType": "address",
          "name": "previousOwner",
          "type": "address"
        },
        {
          "indexed": true,
          "internalType": "address",
          "name": "newOwner",
          "type": "address"
        }
      ],
      "name": "OwnershipTransferred",
      "type": "event"
    },
    {
      "anonymous": false,
      "inputs": [
        {
          "indexed": true,
          "internalType": "uint256",
          "name": "tokenId",
          "type": "uint256"
        },
        {
          "indexed": true,
          "internalType": "string",
          "name": "tokenURI",
          "type": "string"
        }
      ],
      "name": "SetTokenURI",
      "type": "event"
    },
    {
      "anonymous": false,
      "inputs": [
        {
          "indexed": true,
          "internalType": "address",
          "name": "from",
          "type": "address"
        },
        {
          "indexed": true,
          "internalType": "address",
          "name": "to",
          "type": "address"
        },
        {
          "indexed": true,
          "internalType": "uint256",
          "name": "tokenId",
          "type": "uint256"
        }
      ],
      "name": "Transfer",
      "type": "event"
    },
    {
      "inputs": [
        {
          "internalType": "address",
          "name": "to",
          "type": "address"
        },
        {
          "internalType": "uint256",
          "name": "tokenId",
          "type": "uint256"
        }
      ],
      "name": "approve",
      "outputs": [],
      "stateMutability": "nonpayable",
      "type": "function"
    },
    {
      "inputs": [
        {
          "internalType": "address",
          "name": "owner",
          "type": "address"
        }
      ],
      "name": "balanceOf",
      "outputs": [
        {
          "internalType": "uint256",
          "name": "",
          "type": "uint256"
        }
      ],
      "stateMutability": "view",
      "type": "function"
    },
    {
      "inputs": [
        {
          "internalType": "uint256",
          "name": "tokenId",
          "type": "uint256"
        }
      ],
      "name": "burn",
      "outputs": [],
      "stateMutability": "nonpayable",
      "type": "function"
    },
    {
      "inputs": [
        {
          "internalType": "uint256",
          "name": "tokenId",
          "type": "uint256"
        }
      ],
      "name": "getApproved",
      "outputs": [
        {
          "internalType": "address",
          "name": "",
          "type": "address"
        }
      ],
      "stateMutability": "view",
      "type": "function"
    },
    {
      "inputs": [
        {
          "internalType": "address",
          "name": "owner",
          "type": "address"
        },
        {
          "internalType": "address",
          "name": "operator",
          "type": "address"
        }
      ],
      "name": "isApprovedForAll",
      "outputs": [
        {
          "internalType": "bool",
          "name": "",
          "type": "bool"
        }
      ],
      "stateMutability": "view",
      "type": "function"
    },
    {
      "inputs": [
        {
          "internalType": "address",
          "name": "to",
          "type": "address"
        },
        {
          "internalType": "uint256",
          "name": "tokenId",
          "type": "uint256"
        }
      ],
      "name": "mint",
      "outputs": [
        {
          "internalType": "bool",
          "name": "",
          "type": "bool"
        }
      ],
      "stateMutability": "nonpayable",
      "type": "function"
    },
    {
      "inputs": [],
      "name": "name",
      "outputs": [
        {
          "internalType": "string",
          "name": "",
          "type": "string"
        }
      ],
      "stateMutability": "view",
      "type": "function"
    },
    {
      "inputs": [],
      "name": "openBlindBox",
      "outputs": [
        {
          "internalType": "bool",
          "name": "",
          "type": "bool"
        }
      ],
      "stateMutability": "nonpayable",
      "type": "function"
    },
    {
      "inputs": [],
      "name": "owner",
      "outputs": [
        {
          "internalType": "address",
          "name": "",
          "type": "address"
        }
      ],
      "stateMutability": "view",
      "type": "function"
    },
    {
      "inputs": [
        {
          "internalType": "uint256",
          "name": "tokenId",
          "type": "uint256"
        }
      ],
      "name": "ownerOf",
      "outputs": [
        {
          "internalType": "address",
          "name": "",
          "type": "address"
        }
      ],
      "stateMutability": "view",
      "type": "function"
    },
    {
      "inputs": [],
      "name": "renounceOwnership",
      "outputs": [],
      "stateMutability": "nonpayable",
      "type": "function"
    },
    {
      "inputs": [
        {
          "internalType": "address",
          "name": "from",
          "type": "address"
        },
        {
          "internalType": "address",
          "name": "to",
          "type": "address"
        },
        {
          "internalType": "uint256",
          "name": "tokenId",
          "type": "uint256"
        }
      ],
      "name": "safeTransferFrom",
      "outputs": [],
      "stateMutability": "nonpayable",
      "type": "function"
    },
    {
      "inputs": [
        {
          "internalType": "address",
          "name": "from",
          "type": "address"
        },
        {
          "internalType": "address",
          "name": "to",
          "type": "address"
        },
        {
          "internalType": "uint256",
          "name": "tokenId",
          "type": "uint256"
        },
        {
          "internalType": "bytes",
          "name": "data",
          "type": "bytes"
        }
      ],
      "name": "safeTransferFrom",
      "outputs": [],
      "stateMutability": "nonpayable",
      "type": "function"
    },
    {
      "inputs": [
        {
          "internalType": "address",
          "name": "operator",
          "type": "address"
        },
        {
          "internalType": "bool",
          "name": "approved",
          "type": "bool"
        }
      ],
      "name": "setApprovalForAll",
      "outputs": [],
      "stateMutability": "nonpayable",
      "type": "function"
    },
    {
      "inputs": [
        {
          "internalType": "bytes4",
          "name": "interfaceId",
          "type": "bytes4"
        }
      ],
      "name": "supportsInterface",
      "outputs": [
        {
          "internalType": "bool",
          "name": "",
          "type": "bool"
        }
      ],
      "stateMutability": "view",
      "type": "function"
    },
    {
      "inputs": [],
      "name": "symbol",
      "outputs": [
        {
          "internalType": "string",
          "name": "",
          "type": "string"
        }
      ],
      "stateMutability": "view",
      "type": "function"
    },
    {
      "inputs": [
        {
          "internalType": "uint256",
          "name": "tokenId",
          "type": "uint256"
        }
      ],
      "name": "tokenURI",
      "outputs": [
        {
          "internalType": "string",
          "name": "",
          "type": "string"
        }
      ],
      "stateMutability": "view",
      "type": "function"
    },
    {
      "inputs": [],
      "name": "totalSupply",
      "outputs": [
        {
          "internalType": "uint16",
          "name": "",
          "type": "uint16"
        }
      ],
      "stateMutability": "view",
      "type": "function"
    },
    {
      "inputs": [
        {
          "internalType": "address",
          "name": "from",
          "type": "address"
        },
        {
          "internalType": "address",
          "name": "to",
          "type": "address"
        },
        {
          "internalType": "uint256",
          "name": "tokenId",
          "type": "uint256"
        }
      ],
      "name": "transferFrom",
      "outputs": [],
      "stateMutability": "nonpayable",
      "type": "function"
    },
    {
      "inputs": [
        {
          "internalType": "address",
          "name": "newOwner",
          "type": "address"
        }
      ],
      "name": "transferOwnership",
      "outputs": [],
      "stateMutability": "nonpayable",
      "type": "function"
    }
  ],
  "bytecode": {
    "object": "0x60806040523480156200001157600080fd5b50604051620017b1380380620017b183398101604081905262000034916200019b565b806040518060400160405280600d81526020016c109b1a5b9908109bde08139195609a1b81525060405180604001604052806005815260200164109093919560da1b81525081600090816200008a919062000272565b50600162000099828262000272565b5050506001600160a01b038116620000cb57604051631e4fbdf760e01b81526000600482015260240160405180910390fd5b620000d68162000149565b506006805461ffff60a01b1916607d60a21b179055604080516080810190915260438082526200172c6020830139600b9062000113908262000272565b506040518060800160405280604281526020016200176f60429139600c906200013d908262000272565b5050426007556200033e565b600680546001600160a01b038381166001600160a01b0319831681179093556040519116919082907f8be0079c531659141344cd1fd0a4f28419497f9722a3daafe3b4186f6b6457e090600090a35050565b600060208284031215620001ae57600080fd5b81516001600160a01b0381168114620001c657600080fd5b9392505050565b634e487b7160e01b600052604160045260246000fd5b600181811c90821680620001f857607f821691505b6020821081036200021957634e487b7160e01b600052602260045260246000fd5b50919050565b601f8211156200026d57600081815260208120601f850160051c81016020861015620002485750805b601f850160051c820191505b81811015620002695782815560010162000254565b5050505b505050565b81516001600160401b038111156200028e576200028e620001cd565b620002a6816200029f8454620001e3565b846200021f565b602080601f831160018114620002de5760008415620002c55750858301515b600019600386901b1c1916600185901b17855562000269565b600085815260208120601f198616915b828110156200030f57888601518255948401946001909101908401620002ee565b50858210156200032e5787850151600019600388901b60f8161c191681555b5050505050600190811b01905550565b6113de806200034e6000396000f3fe608060405234801561001057600080fd5b506004361061012c5760003560e01c80636352211e116100ad578063a22cb46511610071578063a22cb46514610278578063b88d4fde1461028b578063c87b56dd1461029e578063e985e9c5146102b1578063f2fde38b146102c457600080fd5b80636352211e1461022357806370a0823114610236578063715018a6146102575780638da5cb5b1461025f57806395d89b411461027057600080fd5b806323b872dd116100f457806323b872dd146101cf57806340c10f19146101e257806342842e0e146101f557806342966c68146102085780635548f96d1461021b57600080fd5b806301ffc9a71461013157806306fdde0314610159578063081812fc1461016e578063095ea7b31461019957806318160ddd146101ae575b600080fd5b61014461013f366004610e7b565b6102d7565b60405190151581526020015b60405180910390f35b610161610329565b6040516101509190610ee5565b61018161017c366004610ef8565b6103bb565b6040516001600160a01b039091168152602001610150565b6101ac6101a7366004610f2d565b6103e4565b005b600654600160a01b900461ffff1660405161ffff9091168152602001610150565b6101ac6101dd366004610f57565b6103f3565b6101446101f0366004610f2d565b610483565b6101ac610203366004610f57565b610548565b6101ac610216366004610ef8565b610568565b610144610574565b610181610231366004610ef8565b6106a2565b610249610244366004610f93565b6106ad565b604051908152602001610150565b6101ac6106f5565b6006546001600160a01b0316610181565b610161610709565b6101ac610286366004610fae565b610718565b6101ac610299366004611000565b610723565b6101616102ac366004610ef8565b61073a565b6101446102bf3660046110dc565b61083e565b6101ac6102d2366004610f93565b61086c565b60006001600160e01b031982166380ac58cd60e01b148061030857506001600160e01b03198216635b5e139f60e01b145b8061032357506301ffc9a760e01b6001600160e01b03198316145b92915050565b6060600080546103389061110f565b80601f01602080910402602001604051908101604052809291908181526020018280546103649061110f565b80156103b15780601f10610386576101008083540402835291602001916103b1565b820191906000526020600020905b81548152906001019060200180831161039457829003601f168201915b5050505050905090565b60006103c6826108aa565b506000828152600460205260409020546001600160a01b0316610323565b6103ef8282336108e3565b5050565b6001600160a01b03821661042257604051633250574960e11b8152600060048201526024015b60405180910390fd5b600061042f8383336108f0565b9050836001600160a01b0316816001600160a01b03161461047d576040516364283d7b60e01b81526001600160a01b0380861660048301526024820184905282166044820152606401610419565b50505050565b600654600090600160a01b900461ffff166104e05760405162461bcd60e51b815260206004820152601b60248201527f4552524f523a204e6f206d6f7265204e46542063616e206d696e7400000000006044820152606401610419565b6104ea83836109e9565b6000828152600960205260409020610503600b82611197565b506001600660148282829054906101000a900461ffff16610524919061128a565b92506101000a81548161ffff021916908361ffff1602179055506001905092915050565b61056383838360405180602001604052806000815250610723565b505050565b6103ef600082336108f0565b600061057e610a4e565b60075461058d906102586112ac565b4210156105ec5760405162461bcd60e51b815260206004820152602760248201527f49742773206e6f742074696d6520746f206f70656e2074686520626c696e6420604482015266189bde081e595d60ca1b6064820152608401610419565b60005b60065461060990600160a01b900461ffff166101f461128a565b61ffff1681101561069a57600081815260096020526040902061062d600c82611197565b506000818152600a602052604090819020805460ff191660011790555161065690600c906112bf565b6040519081900381209082907fd2d827dddfc9c9a02afc5fc68d3251684b36e213a7999ebd90a861f25df4077e90600090a38061069281611335565b9150506105ef565b506001905090565b6000610323826108aa565b60006001600160a01b0382166106d9576040516322718ad960e21b815260006004820152602401610419565b506001600160a01b031660009081526003602052604090205490565b6106fd610a4e565b6107076000610a7b565b565b6060600180546103389061110f565b6103ef338383610acd565b61072e8484846103f3565b61047d84848484610b6c565b60606000610747836106a2565b90506001600160a01b03811661079f5760405162461bcd60e51b815260206004820152601c60248201527f4552524f523a20746f6b656e206964206973206e6f742076616c6964000000006044820152606401610419565b600083815260096020526040902080546107b89061110f565b80601f01602080910402602001604051908101604052809291908181526020018280546107e49061110f565b80156108315780601f1061080657610100808354040283529160200191610831565b820191906000526020600020905b81548152906001019060200180831161081457829003601f168201915b5050505050915050919050565b6001600160a01b03918216600090815260056020908152604080832093909416825291909152205460ff1690565b610874610a4e565b6001600160a01b03811661089e57604051631e4fbdf760e01b815260006004820152602401610419565b6108a781610a7b565b50565b6000818152600260205260408120546001600160a01b03168061032357604051637e27328960e01b815260048101849052602401610419565b6105638383836001610c95565b6000828152600260205260408120546001600160a01b039081169083161561091d5761091d818486610d9b565b6001600160a01b0381161561095b5761093a600085600080610c95565b6001600160a01b038116600090815260036020526040902080546000190190555b6001600160a01b0385161561098a576001600160a01b0385166000908152600360205260409020805460010190555b60008481526002602052604080822080546001600160a01b0319166001600160a01b0389811691821790925591518793918516917fddf252ad1be2c89b69c2b068fc378daa952ba7f163c4a11628f55a4df523b3ef91a4949350505050565b6001600160a01b038216610a1357604051633250574960e11b815260006004820152602401610419565b6000610a21838360006108f0565b90506001600160a01b03811615610563576040516339e3563760e11b815260006004820152602401610419565b6006546001600160a01b031633146107075760405163118cdaa760e01b8152336004820152602401610419565b600680546001600160a01b038381166001600160a01b0319831681179093556040519116919082907f8be0079c531659141344cd1fd0a4f28419497f9722a3daafe3b4186f6b6457e090600090a35050565b6001600160a01b038216610aff57604051630b61174360e31b81526001600160a01b0383166004820152602401610419565b6001600160a01b03838116600081815260056020908152604080832094871680845294825291829020805460ff191686151590811790915591519182527f17307eab39ab6107e8899845ad3d59bd9653f200f220920489ca2b5937696c31910160405180910390a3505050565b6001600160a01b0383163b1561047d57604051630a85bd0160e11b81526001600160a01b0384169063150b7a0290610bae90339088908790879060040161134e565b6020604051808303816000875af1925050508015610be9575060408051601f3d908101601f19168201909252610be69181019061138b565b60015b610c52573d808015610c17576040519150601f19603f3d011682016040523d82523d6000602084013e610c1c565b606091505b508051600003610c4a57604051633250574960e11b81526001600160a01b0385166004820152602401610419565b805181602001fd5b6001600160e01b03198116630a85bd0160e11b14610c8e57604051633250574960e11b81526001600160a01b0385166004820152602401610419565b5050505050565b8080610ca957506001600160a01b03821615155b15610d6b576000610cb9846108aa565b90506001600160a01b03831615801590610ce55750826001600160a01b0316816001600160a01b031614155b8015610cf85750610cf6818461083e565b155b15610d215760405163a9fbf51f60e01b81526001600160a01b0384166004820152602401610419565b8115610d695783856001600160a01b0316826001600160a01b03167f8c5be1e5ebec7d5bd14f71427d1e84f3dd0314c0f7b2291e5b200ac8c7c3b92560405160405180910390a45b505b5050600090815260046020526040902080546001600160a01b0319166001600160a01b0392909216919091179055565b610da6838383610dff565b610563576001600160a01b038316610dd457604051637e27328960e01b815260048101829052602401610419565b60405163177e802f60e01b81526001600160a01b038316600482015260248101829052604401610419565b60006001600160a01b03831615801590610e5d5750826001600160a01b0316846001600160a01b03161480610e395750610e39848461083e565b80610e5d57506000828152600460205260409020546001600160a01b038481169116145b949350505050565b6001600160e01b0319811681146108a757600080fd5b600060208284031215610e8d57600080fd5b8135610e9881610e65565b9392505050565b6000815180845260005b81811015610ec557602081850181015186830182015201610ea9565b506000602082860101526020601f19601f83011685010191505092915050565b602081526000610e986020830184610e9f565b600060208284031215610f0a57600080fd5b5035919050565b80356001600160a01b0381168114610f2857600080fd5b919050565b60008060408385031215610f4057600080fd5b610f4983610f11565b946020939093013593505050565b600080600060608486031215610f6c57600080fd5b610f7584610f11565b9250610f8360208501610f11565b9150604084013590509250925092565b600060208284031215610fa557600080fd5b610e9882610f11565b60008060408385031215610fc157600080fd5b610fca83610f11565b915060208301358015158114610fdf57600080fd5b809150509250929050565b634e487b7160e01b600052604160045260246000fd5b6000806000806080858703121561101657600080fd5b61101f85610f11565b935061102d60208601610f11565b925060408501359150606085013567ffffffffffffffff8082111561105157600080fd5b818701915087601f83011261106557600080fd5b81358181111561107757611077610fea565b604051601f8201601f19908116603f0116810190838211818310171561109f5761109f610fea565b816040528281528a60208487010111156110b857600080fd5b82602086016020830137600060208483010152809550505050505092959194509250565b600080604083850312156110ef57600080fd5b6110f883610f11565b915061110660208401610f11565b90509250929050565b600181811c9082168061112357607f821691505b60208210810361114357634e487b7160e01b600052602260045260246000fd5b50919050565b601f82111561056357600081815260208120601f850160051c810160208610156111705750805b601f850160051c820191505b8181101561118f5782815560010161117c565b505050505050565b8181036111a2575050565b6111ac825461110f565b67ffffffffffffffff8111156111c4576111c4610fea565b6111d8816111d2845461110f565b84611149565b6000601f82116001811461120c57600083156111f45750848201545b600019600385901b1c1916600184901b178455610c8e565b600085815260209020601f19841690600086815260209020845b838110156112465782860154825560019586019590910190602001611226565b50858310156112645781850154600019600388901b60f8161c191681555b5050505050600190811b01905550565b634e487b7160e01b600052601160045260246000fd5b61ffff8281168282160390808211156112a5576112a5611274565b5092915050565b8082018082111561032357610323611274565b60008083546112cd8161110f565b600182811680156112e557600181146112fa57611329565b60ff1984168752821515830287019450611329565b8760005260208060002060005b858110156113205781548a820152908401908201611307565b50505082870194505b50929695505050505050565b60006001820161134757611347611274565b5060010190565b6001600160a01b038581168252841660208201526040810183905260806060820181905260009061138190830184610e9f565b9695505050505050565b60006020828403121561139d57600080fd5b8151610e9881610e6556fea2646970667358221220751f438a0ff90f55b300472e8c4a6a9f50bc0e7bd2b4c48bc3493aaa6a677bc164736f6c63430008150033697066733a2f2f516d5a68696f7939717772694a424c416f6352564b3641356337755a6e5432667a424a4e386b756a7975453244332f426c696e64426f782e6a736f6e697066733a2f2f516d5a68696f7939717772694a424c416f6352564b3641356337755a6e5432667a424a4e386b756a7975453244332f50696b616368752e6a736f6e",
    "linkReferences": {}
  },
  "methodIdentifiers": {
    "approve(address,uint256)": "095ea7b3",
    "balanceOf(address)": "70a08231",
    "burn(uint256)": "42966c68",
    "getApproved(uint256)": "081812fc",
    "isApprovedForAll(address,address)": "e985e9c5",
    "mint(address,uint256)": "40c10f19",
    "name()": "06fdde03",
    "openBlindBox()": "5548f96d",
    "owner()": "8da5cb5b",
    "ownerOf(uint256)": "6352211e",
    "renounceOwnership()": "715018a6",
    "safeTransferFrom(address,address,uint256)": "42842e0e",
    "safeTransferFrom(address,address,uint256,bytes)": "b88d4fde",
    "setApprovalForAll(address,bool)": "a22cb465",
    "supportsInterface(bytes4)": "01ffc9a7",
    "symbol()": "95d89b41",
    "tokenURI(uint256)": "c87b56dd",
    "totalSupply()": "18160ddd",
    "transferFrom(address,address,uint256)": "23b872dd",
    "transferOwnership(address)": "f2fde38b"
  },
  "id": 31
}