{
  "abi": [
    {
      "inputs": [],
      "stateMutability": "nonpayable",
      "type": "constructor"
    },
    {
      "inputs": [
        {
          "internalType": "address",
          "name": "sender",
          "type": "address"
        },
        {
          "internalType": "uint256",
          "name": "tokenId",
          "type": "uint256"
        },
        {
          "internalType": "address",
          "name": "owner",
          "type": "address"
        }
      ],
      "name": "ERC721IncorrectOwner",
      "type": "error"
    },
    {
      "inputs": [
        {
          "internalType": "address",
          "name": "operator",
          "type": "address"
        },
        {
          "internalType": "uint256",
          "name": "tokenId",
          "type": "uint256"
        }
      ],
      "name": "ERC721InsufficientApproval",
      "type": "error"
    },
    {
      "inputs": [
        {
          "internalType": "address",
          "name": "approver",
          "type": "address"
        }
      ],
      "name": "ERC721InvalidApprover",
      "type": "error"
    },
    {
      "inputs": [
        {
          "internalType": "address",
          "name": "operator",
          "type": "address"
        }
      ],
      "name": "ERC721InvalidOperator",
      "type": "error"
    },
    {
      "inputs": [
        {
          "internalType": "address",
          "name": "owner",
          "type": "address"
        }
      ],
      "name": "ERC721InvalidOwner",
      "type": "error"
    },
    {
      "inputs": [
        {
          "internalType": "address",
          "name": "receiver",
          "type": "address"
        }
      ],
      "name": "ERC721InvalidReceiver",
      "type": "error"
    },
    {
      "inputs": [
        {
          "internalType": "address",
          "name": "sender",
          "type": "address"
        }
      ],
      "name": "ERC721InvalidSender",
      "type": "error"
    },
    {
      "inputs": [
        {
          "internalType": "uint256",
          "name": "tokenId",
          "type": "uint256"
        }
      ],
      "name": "ERC721NonexistentToken",
      "type": "error"
    },
    {
      "inputs": [
        {
          "internalType": "address",
          "name": "owner",
          "type": "address"
        }
      ],
      "name": "OwnableInvalidOwner",
      "type": "error"
    },
    {
      "inputs": [
        {
          "internalType": "address",
          "name": "account",
          "type": "address"
        }
      ],
      "name": "OwnableUnauthorizedAccount",
      "type": "error"
    },
    {
      "anonymous": false,
      "inputs": [
        {
          "indexed": true,
          "internalType": "address",
          "name": "owner",
          "type": "address"
        },
        {
          "indexed": true,
          "internalType": "address",
          "name": "approved",
          "type": "address"
        },
        {
          "indexed": true,
          "internalType": "uint256",
          "name": "tokenId",
          "type": "uint256"
        }
      ],
      "name": "Approval",
      "type": "event"
    },
    {
      "anonymous": false,
      "inputs": [
        {
          "indexed": true,
          "internalType": "address",
          "name": "owner",
          "type": "address"
        },
        {
          "indexed": true,
          "internalType": "address",
          "name": "operator",
          "type": "address"
        },
        {
          "indexed": false,
          "internalType": "bool",
          "name": "approved",
          "type": "bool"
        }
      ],
      "name": "ApprovalForAll",
      "type": "event"
    },
    {
      "anonymous": false,
      "inputs": [
        {
          "indexed": true,
          "internalType": "address",
          "name": "previousOwner",
          "type": "address"
        },
        {
          "indexed": true,
          "internalType": "address",
          "name": "newOwner",
          "type": "address"
        }
      ],
      "name": "OwnershipTransferred",
      "type": "event"
    },
    {
      "anonymous": false,
      "inputs": [
        {
          "indexed": true,
          "internalType": "address",
          "name": "from",
          "type": "address"
        },
        {
          "indexed": true,
          "internalType": "address",
          "name": "to",
          "type": "address"
        },
        {
          "indexed": true,
          "internalType": "uint256",
          "name": "tokenId",
          "type": "uint256"
        }
      ],
      "name": "Transfer",
      "type": "event"
    },
    {
      "inputs": [
        {
          "internalType": "address",
          "name": "to",
          "type": "address"
        },
        {
          "internalType": "uint256",
          "name": "tokenId",
          "type": "uint256"
        }
      ],
      "name": "approve",
      "outputs": [],
      "stateMutability": "nonpayable",
      "type": "function"
    },
    {
      "inputs": [
        {
          "internalType": "address",
          "name": "owner",
          "type": "address"
        }
      ],
      "name": "balanceOf",
      "outputs": [
        {
          "internalType": "uint256",
          "name": "",
          "type": "uint256"
        }
      ],
      "stateMutability": "view",
      "type": "function"
    },
    {
      "inputs": [
        {
          "internalType": "uint256",
          "name": "tokenId",
          "type": "uint256"
        }
      ],
      "name": "burn",
      "outputs": [],
      "stateMutability": "nonpayable",
      "type": "function"
    },
    {
      "inputs": [
        {
          "internalType": "uint256",
          "name": "tokenId",
          "type": "uint256"
        }
      ],
      "name": "getApproved",
      "outputs": [
        {
          "internalType": "address",
          "name": "",
          "type": "address"
        }
      ],
      "stateMutability": "view",
      "type": "function"
    },
    {
      "inputs": [],
      "name": "image",
      "outputs": [
        {
          "internalType": "string",
          "name": "",
          "type": "string"
        }
      ],
      "stateMutability": "view",
      "type": "function"
    },
    {
      "inputs": [
        {
          "internalType": "address",
          "name": "owner",
          "type": "address"
        },
        {
          "internalType": "address",
          "name": "operator",
          "type": "address"
        }
      ],
      "name": "isApprovedForAll",
      "outputs": [
        {
          "internalType": "bool",
          "name": "",
          "type": "bool"
        }
      ],
      "stateMutability": "view",
      "type": "function"
    },
    {
      "inputs": [],
      "name": "name",
      "outputs": [
        {
          "internalType": "string",
          "name": "",
          "type": "string"
        }
      ],
      "stateMutability": "view",
      "type": "function"
    },
    {
      "inputs": [],
      "name": "owner",
      "outputs": [
        {
          "internalType": "address",
          "name": "",
          "type": "address"
        }
      ],
      "stateMutability": "view",
      "type": "function"
    },
    {
      "inputs": [
        {
          "internalType": "uint256",
          "name": "tokenId",
          "type": "uint256"
        }
      ],
      "name": "ownerOf",
      "outputs": [
        {
          "internalType": "address",
          "name": "",
          "type": "address"
        }
      ],
      "stateMutability": "view",
      "type": "function"
    },
    {
      "inputs": [],
      "name": "renounceOwnership",
      "outputs": [],
      "stateMutability": "nonpayable",
      "type": "function"
    },
    {
      "inputs": [
        {
          "internalType": "address",
          "name": "to",
          "type": "address"
        },
        {
          "internalType": "uint256",
          "name": "tokenId",
          "type": "uint256"
        }
      ],
      "name": "safeMint",
      "outputs": [],
      "stateMutability": "nonpayable",
      "type": "function"
    },
    {
      "inputs": [
        {
          "internalType": "address",
          "name": "from",
          "type": "address"
        },
        {
          "internalType": "address",
          "name": "to",
          "type": "address"
        },
        {
          "internalType": "uint256",
          "name": "tokenId",
          "type": "uint256"
        }
      ],
      "name": "safeTransferFrom",
      "outputs": [],
      "stateMutability": "nonpayable",
      "type": "function"
    },
    {
      "inputs": [
        {
          "internalType": "address",
          "name": "from",
          "type": "address"
        },
        {
          "internalType": "address",
          "name": "to",
          "type": "address"
        },
        {
          "internalType": "uint256",
          "name": "tokenId",
          "type": "uint256"
        },
        {
          "internalType": "bytes",
          "name": "data",
          "type": "bytes"
        }
      ],
      "name": "safeTransferFrom",
      "outputs": [],
      "stateMutability": "nonpayable",
      "type": "function"
    },
    {
      "inputs": [
        {
          "internalType": "address",
          "name": "operator",
          "type": "address"
        },
        {
          "internalType": "bool",
          "name": "approved",
          "type": "bool"
        }
      ],
      "name": "setApprovalForAll",
      "outputs": [],
      "stateMutability": "nonpayable",
      "type": "function"
    },
    {
      "inputs": [
        {
          "internalType": "string",
          "name": "image_",
          "type": "string"
        }
      ],
      "name": "setImage",
      "outputs": [],
      "stateMutability": "nonpayable",
      "type": "function"
    },
    {
      "inputs": [
        {
          "internalType": "bytes4",
          "name": "interfaceId",
          "type": "bytes4"
        }
      ],
      "name": "supportsInterface",
      "outputs": [
        {
          "internalType": "bool",
          "name": "",
          "type": "bool"
        }
      ],
      "stateMutability": "view",
      "type": "function"
    },
    {
      "inputs": [],
      "name": "symbol",
      "outputs": [
        {
          "internalType": "string",
          "name": "",
          "type": "string"
        }
      ],
      "stateMutability": "view",
      "type": "function"
    },
    {
      "inputs": [
        {
          "internalType": "uint256",
          "name": "tokenId",
          "type": "uint256"
        }
      ],
      "name": "tokenURI",
      "outputs": [
        {
          "internalType": "string",
          "name": "",
          "type": "string"
        }
      ],
      "stateMutability": "view",
      "type": "function"
    },
    {
      "inputs": [
        {
          "internalType": "address",
          "name": "from",
          "type": "address"
        },
        {
          "internalType": "address",
          "name": "to",
          "type": "address"
        },
        {
          "internalType": "uint256",
          "name": "tokenId",
          "type": "uint256"
        }
      ],
      "name": "transferFrom",
      "outputs": [],
      "stateMutability": "nonpayable",
      "type": "function"
    },
    {
      "inputs": [
        {
          "internalType": "address",
          "name": "newOwner",
          "type": "address"
        }
      ],
      "name": "transferOwnership",
      "outputs": [],
      "stateMutability": "nonpayable",
      "type": "function"
    }
  ],
  "bytecode": {
    "object": "0x60806040523480156200001157600080fd5b50731d36536728a32b5a9511e20cdc7eba6dd4e3a2536040518060400160405280600781526020016626bcaa37b5b2b760c91b815250604051806040016040528060038152602001624d544b60e81b8152508160009081620000749190620001be565b506001620000838282620001be565b5050506001600160a01b038116620000b557604051631e4fbdf760e01b81526000600482015260240160405180910390fd5b620000c081620000c7565b506200028a565b600680546001600160a01b038381166001600160a01b0319831681179093556040519116919082907f8be0079c531659141344cd1fd0a4f28419497f9722a3daafe3b4186f6b6457e090600090a35050565b634e487b7160e01b600052604160045260246000fd5b600181811c908216806200014457607f821691505b6020821081036200016557634e487b7160e01b600052602260045260246000fd5b50919050565b601f821115620001b957600081815260208120601f850160051c81016020861015620001945750805b601f850160051c820191505b81811015620001b557828155600101620001a0565b5050505b505050565b81516001600160401b03811115620001da57620001da62000119565b620001f281620001eb84546200012f565b846200016b565b602080601f8311600181146200022a5760008415620002115750858301515b600019600386901b1c1916600185901b178555620001b5565b600085815260208120601f198616915b828110156200025b578886015182559484019460019091019084016200023a565b50858210156200027a5787850151600019600388901b60f8161c191681555b5050505050600190811b01905550565b611388806200029a6000396000f3fe608060405234801561001057600080fd5b506004361061012c5760003560e01c806371adb5e6116100ad578063b88d4fde11610071578063b88d4fde14610275578063c87b56dd14610288578063e985e9c51461029b578063f2fde38b146102ae578063f3ccaac0146102c157600080fd5b806371adb5e6146102235780638da5cb5b1461023657806395d89b4114610247578063a14481941461024f578063a22cb4651461026257600080fd5b806342842e0e116100f457806342842e0e146101c157806342966c68146101d45780636352211e146101e757806370a08231146101fa578063715018a61461021b57600080fd5b806301ffc9a71461013157806306fdde0314610159578063081812fc1461016e578063095ea7b31461019957806323b872dd146101ae575b600080fd5b61014461013f366004610e58565b6102c9565b60405190151581526020015b60405180910390f35b61016161031b565b6040516101509190610ec5565b61018161017c366004610ed8565b6103ad565b6040516001600160a01b039091168152602001610150565b6101ac6101a7366004610f0d565b6103d6565b005b6101ac6101bc366004610f37565b6103e5565b6101ac6101cf366004610f37565b610475565b6101ac6101e2366004610ed8565b610495565b6101816101f5366004610ed8565b6104a1565b61020d610208366004610f73565b6104ac565b604051908152602001610150565b6101ac6104f4565b6101ac61023136600461101a565b610508565b6006546001600160a01b0316610181565b610161610514565b6101ac61025d366004610f0d565b610523565b6101ac610270366004611063565b610535565b6101ac61028336600461109f565b610540565b610161610296366004610ed8565b610557565b6101446102a936600461111b565b6105bf565b6101ac6102bc366004610f73565b6105ed565b61016161062b565b60006001600160e01b031982166380ac58cd60e01b14806102fa57506001600160e01b03198216635b5e139f60e01b145b8061031557506301ffc9a760e01b6001600160e01b03198316145b92915050565b60606000805461032a9061114e565b80601f01602080910402602001604051908101604052809291908181526020018280546103569061114e565b80156103a35780601f10610378576101008083540402835291602001916103a3565b820191906000526020600020905b81548152906001019060200180831161038657829003601f168201915b5050505050905090565b60006103b8826106b9565b506000828152600460205260409020546001600160a01b0316610315565b6103e18282336106f2565b5050565b6001600160a01b03821661041457604051633250574960e11b8152600060048201526024015b60405180910390fd5b60006104218383336106ff565b9050836001600160a01b0316816001600160a01b03161461046f576040516364283d7b60e01b81526001600160a01b038086166004830152602482018490528216604482015260640161040b565b50505050565b61049083838360405180602001604052806000815250610540565b505050565b6103e1600082336106ff565b6000610315826106b9565b60006001600160a01b0382166104d8576040516322718ad960e21b81526000600482015260240161040b565b506001600160a01b031660009081526003602052604090205490565b6104fc610714565b6105066000610741565b565b60076103e182826111d6565b60606001805461032a9061114e565b61052b610714565b6103e18282610793565b6103e13383836107ad565b61054b8484846103e5565b61046f8484848461084c565b6060610562826106b9565b50600061056d610975565b9050600081511161058d57604051806020016040528060008152506105b8565b8061059784610995565b6040516020016105a8929190611296565b6040516020818303038152906040525b9392505050565b6001600160a01b03918216600090815260056020908152604080832093909416825291909152205460ff1690565b6105f5610714565b6001600160a01b03811661061f57604051631e4fbdf760e01b81526000600482015260240161040b565b61062881610741565b50565b600780546106389061114e565b80601f01602080910402602001604051908101604052809291908181526020018280546106649061114e565b80156106b15780601f10610686576101008083540402835291602001916106b1565b820191906000526020600020905b81548152906001019060200180831161069457829003601f168201915b505050505081565b6000818152600260205260408120546001600160a01b03168061031557604051637e27328960e01b81526004810184905260240161040b565b6104908383836001610a28565b600061070c848484610b2e565b949350505050565b6006546001600160a01b031633146105065760405163118cdaa760e01b815233600482015260240161040b565b600680546001600160a01b038381166001600160a01b0319831681179093556040519116919082907f8be0079c531659141344cd1fd0a4f28419497f9722a3daafe3b4186f6b6457e090600090a35050565b6103e1828260405180602001604052806000815250610c27565b6001600160a01b0382166107df57604051630b61174360e31b81526001600160a01b038316600482015260240161040b565b6001600160a01b03838116600081815260056020908152604080832094871680845294825291829020805460ff191686151590811790915591519182527f17307eab39ab6107e8899845ad3d59bd9653f200f220920489ca2b5937696c31910160405180910390a3505050565b6001600160a01b0383163b1561046f57604051630a85bd0160e11b81526001600160a01b0384169063150b7a029061088e9033908890879087906004016112c5565b6020604051808303816000875af19250505080156108c9575060408051601f3d908101601f191682019092526108c691810190611302565b60015b610932573d8080156108f7576040519150601f19603f3d011682016040523d82523d6000602084013e6108fc565b606091505b50805160000361092a57604051633250574960e11b81526001600160a01b038516600482015260240161040b565b805181602001fd5b6001600160e01b03198116630a85bd0160e11b1461096e57604051633250574960e11b81526001600160a01b038516600482015260240161040b565b5050505050565b606060405180606001604052806033815260200161132060339139905090565b606060006109a283610c3e565b600101905060008167ffffffffffffffff8111156109c2576109c2610f8e565b6040519080825280601f01601f1916602001820160405280156109ec576020820181803683370190505b5090508181016020015b600019016f181899199a1a9b1b9c1cb0b131b232b360811b600a86061a8153600a85049450846109f657509392505050565b8080610a3c57506001600160a01b03821615155b15610afe576000610a4c846106b9565b90506001600160a01b03831615801590610a785750826001600160a01b0316816001600160a01b031614155b8015610a8b5750610a8981846105bf565b155b15610ab45760405163a9fbf51f60e01b81526001600160a01b038416600482015260240161040b565b8115610afc5783856001600160a01b0316826001600160a01b03167f8c5be1e5ebec7d5bd14f71427d1e84f3dd0314c0f7b2291e5b200ac8c7c3b92560405160405180910390a45b505b5050600090815260046020526040902080546001600160a01b0319166001600160a01b0392909216919091179055565b6000828152600260205260408120546001600160a01b0390811690831615610b5b57610b5b818486610d16565b6001600160a01b03811615610b9957610b78600085600080610a28565b6001600160a01b038116600090815260036020526040902080546000190190555b6001600160a01b03851615610bc8576001600160a01b0385166000908152600360205260409020805460010190555b60008481526002602052604080822080546001600160a01b0319166001600160a01b0389811691821790925591518793918516917fddf252ad1be2c89b69c2b068fc378daa952ba7f163c4a11628f55a4df523b3ef91a4949350505050565b610c318383610d7a565b610490600084848461084c565b60008072184f03e93ff9f4daa797ed6e38ed64bf6a1f0160401b8310610c7d5772184f03e93ff9f4daa797ed6e38ed64bf6a1f0160401b830492506040015b6d04ee2d6d415b85acef81000000008310610ca9576d04ee2d6d415b85acef8100000000830492506020015b662386f26fc100008310610cc757662386f26fc10000830492506010015b6305f5e1008310610cdf576305f5e100830492506008015b6127108310610cf357612710830492506004015b60648310610d05576064830492506002015b600a83106103155760010192915050565b610d21838383610ddf565b610490576001600160a01b038316610d4f57604051637e27328960e01b81526004810182905260240161040b565b60405163177e802f60e01b81526001600160a01b03831660048201526024810182905260440161040b565b6001600160a01b038216610da457604051633250574960e11b81526000600482015260240161040b565b6000610db2838360006106ff565b90506001600160a01b03811615610490576040516339e3563760e11b81526000600482015260240161040b565b60006001600160a01b0383161580159061070c5750826001600160a01b0316846001600160a01b03161480610e195750610e1984846105bf565b8061070c5750506000908152600460205260409020546001600160a01b03908116911614919050565b6001600160e01b03198116811461062857600080fd5b600060208284031215610e6a57600080fd5b81356105b881610e42565b60005b83811015610e90578181015183820152602001610e78565b50506000910152565b60008151808452610eb1816020860160208601610e75565b601f01601f19169290920160200192915050565b6020815260006105b86020830184610e99565b600060208284031215610eea57600080fd5b5035919050565b80356001600160a01b0381168114610f0857600080fd5b919050565b60008060408385031215610f2057600080fd5b610f2983610ef1565b946020939093013593505050565b600080600060608486031215610f4c57600080fd5b610f5584610ef1565b9250610f6360208501610ef1565b9150604084013590509250925092565b600060208284031215610f8557600080fd5b6105b882610ef1565b634e487b7160e01b600052604160045260246000fd5b600067ffffffffffffffff80841115610fbf57610fbf610f8e565b604051601f8501601f19908116603f01168101908282118183101715610fe757610fe7610f8e565b8160405280935085815286868601111561100057600080fd5b858560208301376000602087830101525050509392505050565b60006020828403121561102c57600080fd5b813567ffffffffffffffff81111561104357600080fd5b8201601f8101841361105457600080fd5b61070c84823560208401610fa4565b6000806040838503121561107657600080fd5b61107f83610ef1565b91506020830135801515811461109457600080fd5b809150509250929050565b600080600080608085870312156110b557600080fd5b6110be85610ef1565b93506110cc60208601610ef1565b925060408501359150606085013567ffffffffffffffff8111156110ef57600080fd5b8501601f8101871361110057600080fd5b61110f87823560208401610fa4565b91505092959194509250565b6000806040838503121561112e57600080fd5b61113783610ef1565b915061114560208401610ef1565b90509250929050565b600181811c9082168061116257607f821691505b60208210810361118257634e487b7160e01b600052602260045260246000fd5b50919050565b601f82111561049057600081815260208120601f850160051c810160208610156111af5750805b601f850160051c820191505b818110156111ce578281556001016111bb565b505050505050565b815167ffffffffffffffff8111156111f0576111f0610f8e565b611204816111fe845461114e565b84611188565b602080601f83116001811461123957600084156112215750858301515b600019600386901b1c1916600185901b1785556111ce565b600085815260208120601f198616915b8281101561126857888601518255948401946001909101908401611249565b50858210156112865787850151600019600388901b60f8161c191681555b5050505050600190811b01905550565b600083516112a8818460208801610e75565b8351908301906112bc818360208801610e75565b01949350505050565b6001600160a01b03858116825284166020820152604081018390526080606082018190526000906112f890830184610e99565b9695505050505050565b60006020828403121561131457600080fd5b81516105b881610e4256fe697066733a516d5134436d5a754e377845655a5653614657416e51704d71366e4e50356b5447376f4a393168675a686e355832a26469706673582212208522c3ec9df100c98a048fe451de80683d85d26a3222e3427d37b92a91d0e51964736f6c63430008150033",
    "linkReferences": {}
  },
  "methodIdentifiers": {
    "approve(address,uint256)": "095ea7b3",
    "balanceOf(address)": "70a08231",
    "burn(uint256)": "42966c68",
    "getApproved(uint256)": "081812fc",
    "image()": "f3ccaac0",
    "isApprovedForAll(address,address)": "e985e9c5",
    "name()": "06fdde03",
    "owner()": "8da5cb5b",
    "ownerOf(uint256)": "6352211e",
    "renounceOwnership()": "715018a6",
    "safeMint(address,uint256)": "a1448194",
    "safeTransferFrom(address,address,uint256)": "42842e0e",
    "safeTransferFrom(address,address,uint256,bytes)": "b88d4fde",
    "setApprovalForAll(address,bool)": "a22cb465",
    "setImage(string)": "71adb5e6",
    "supportsInterface(bytes4)": "01ffc9a7",
    "symbol()": "95d89b41",
    "tokenURI(uint256)": "c87b56dd",
    "transferFrom(address,address,uint256)": "23b872dd",
    "transferOwnership(address)": "f2fde38b"
  },
  "id": 13
}