{
  "abi": [
    {
      "inputs": [
        {
          "internalType": "address",
          "name": "hwTokenAddr",
          "type": "address"
        }
      ],
      "stateMutability": "nonpayable",
      "type": "constructor"
    },
    {
      "inputs": [
        {
          "internalType": "address",
          "name": "sender",
          "type": "address"
        },
        {
          "internalType": "uint256",
          "name": "tokenId",
          "type": "uint256"
        },
        {
          "internalType": "address",
          "name": "owner",
          "type": "address"
        }
      ],
      "name": "ERC721IncorrectOwner",
      "type": "error"
    },
    {
      "inputs": [
        {
          "internalType": "address",
          "name": "operator",
          "type": "address"
        },
        {
          "internalType": "uint256",
          "name": "tokenId",
          "type": "uint256"
        }
      ],
      "name": "ERC721InsufficientApproval",
      "type": "error"
    },
    {
      "inputs": [
        {
          "internalType": "address",
          "name": "approver",
          "type": "address"
        }
      ],
      "name": "ERC721InvalidApprover",
      "type": "error"
    },
    {
      "inputs": [
        {
          "internalType": "address",
          "name": "operator",
          "type": "address"
        }
      ],
      "name": "ERC721InvalidOperator",
      "type": "error"
    },
    {
      "inputs": [
        {
          "internalType": "address",
          "name": "owner",
          "type": "address"
        }
      ],
      "name": "ERC721InvalidOwner",
      "type": "error"
    },
    {
      "inputs": [
        {
          "internalType": "address",
          "name": "receiver",
          "type": "address"
        }
      ],
      "name": "ERC721InvalidReceiver",
      "type": "error"
    },
    {
      "inputs": [
        {
          "internalType": "address",
          "name": "sender",
          "type": "address"
        }
      ],
      "name": "ERC721InvalidSender",
      "type": "error"
    },
    {
      "inputs": [
        {
          "internalType": "uint256",
          "name": "tokenId",
          "type": "uint256"
        }
      ],
      "name": "ERC721NonexistentToken",
      "type": "error"
    },
    {
      "anonymous": false,
      "inputs": [
        {
          "indexed": true,
          "internalType": "address",
          "name": "owner",
          "type": "address"
        },
        {
          "indexed": true,
          "internalType": "address",
          "name": "approved",
          "type": "address"
        },
        {
          "indexed": true,
          "internalType": "uint256",
          "name": "tokenId",
          "type": "uint256"
        }
      ],
      "name": "Approval",
      "type": "event"
    },
    {
      "anonymous": false,
      "inputs": [
        {
          "indexed": true,
          "internalType": "address",
          "name": "owner",
          "type": "address"
        },
        {
          "indexed": true,
          "internalType": "address",
          "name": "operator",
          "type": "address"
        },
        {
          "indexed": false,
          "internalType": "bool",
          "name": "approved",
          "type": "bool"
        }
      ],
      "name": "ApprovalForAll",
      "type": "event"
    },
    {
      "anonymous": false,
      "inputs": [
        {
          "indexed": true,
          "internalType": "address",
          "name": "from",
          "type": "address"
        },
        {
          "indexed": true,
          "internalType": "address",
          "name": "to",
          "type": "address"
        },
        {
          "indexed": true,
          "internalType": "uint256",
          "name": "tokenId",
          "type": "uint256"
        }
      ],
      "name": "Transfer",
      "type": "event"
    },
    {
      "inputs": [],
      "name": "_owner",
      "outputs": [
        {
          "internalType": "address",
          "name": "",
          "type": "address"
        }
      ],
      "stateMutability": "view",
      "type": "function"
    },
    {
      "inputs": [
        {
          "internalType": "address",
          "name": "to",
          "type": "address"
        },
        {
          "internalType": "uint256",
          "name": "tokenId",
          "type": "uint256"
        }
      ],
      "name": "approve",
      "outputs": [],
      "stateMutability": "nonpayable",
      "type": "function"
    },
    {
      "inputs": [
        {
          "internalType": "address",
          "name": "owner",
          "type": "address"
        }
      ],
      "name": "balanceOf",
      "outputs": [
        {
          "internalType": "uint256",
          "name": "",
          "type": "uint256"
        }
      ],
      "stateMutability": "view",
      "type": "function"
    },
    {
      "inputs": [
        {
          "internalType": "uint256",
          "name": "tokenId",
          "type": "uint256"
        }
      ],
      "name": "burn",
      "outputs": [],
      "stateMutability": "nonpayable",
      "type": "function"
    },
    {
      "inputs": [
        {
          "internalType": "uint256",
          "name": "tokenId",
          "type": "uint256"
        }
      ],
      "name": "getApproved",
      "outputs": [
        {
          "internalType": "address",
          "name": "",
          "type": "address"
        }
      ],
      "stateMutability": "view",
      "type": "function"
    },
    {
      "inputs": [],
      "name": "hwToken",
      "outputs": [
        {
          "internalType": "contract HW_Token",
          "name": "",
          "type": "address"
        }
      ],
      "stateMutability": "view",
      "type": "function"
    },
    {
      "inputs": [
        {
          "internalType": "address",
          "name": "owner",
          "type": "address"
        },
        {
          "internalType": "address",
          "name": "operator",
          "type": "address"
        }
      ],
      "name": "isApprovedForAll",
      "outputs": [
        {
          "internalType": "bool",
          "name": "",
          "type": "bool"
        }
      ],
      "stateMutability": "view",
      "type": "function"
    },
    {
      "inputs": [
        {
          "internalType": "address",
          "name": "to",
          "type": "address"
        },
        {
          "internalType": "uint256",
          "name": "tokenId",
          "type": "uint256"
        }
      ],
      "name": "mint",
      "outputs": [
        {
          "internalType": "bool",
          "name": "",
          "type": "bool"
        }
      ],
      "stateMutability": "nonpayable",
      "type": "function"
    },
    {
      "inputs": [],
      "name": "name",
      "outputs": [
        {
          "internalType": "string",
          "name": "",
          "type": "string"
        }
      ],
      "stateMutability": "view",
      "type": "function"
    },
    {
      "inputs": [
        {
          "internalType": "address",
          "name": "operator",
          "type": "address"
        },
        {
          "internalType": "address",
          "name": "from",
          "type": "address"
        },
        {
          "internalType": "uint256",
          "name": "tokenId",
          "type": "uint256"
        },
        {
          "internalType": "bytes",
          "name": "data",
          "type": "bytes"
        }
      ],
      "name": "onERC721Received",
      "outputs": [
        {
          "internalType": "bytes4",
          "name": "",
          "type": "bytes4"
        }
      ],
      "stateMutability": "nonpayable",
      "type": "function"
    },
    {
      "inputs": [
        {
          "internalType": "uint256",
          "name": "tokenId",
          "type": "uint256"
        }
      ],
      "name": "ownerOf",
      "outputs": [
        {
          "internalType": "address",
          "name": "",
          "type": "address"
        }
      ],
      "stateMutability": "view",
      "type": "function"
    },
    {
      "inputs": [],
      "name": "queryHwToken",
      "outputs": [
        {
          "internalType": "address",
          "name": "",
          "type": "address"
        }
      ],
      "stateMutability": "view",
      "type": "function"
    },
    {
      "inputs": [
        {
          "internalType": "address",
          "name": "from",
          "type": "address"
        },
        {
          "internalType": "address",
          "name": "to",
          "type": "address"
        },
        {
          "internalType": "uint256",
          "name": "tokenId",
          "type": "uint256"
        }
      ],
      "name": "safeTransferFrom",
      "outputs": [],
      "stateMutability": "nonpayable",
      "type": "function"
    },
    {
      "inputs": [
        {
          "internalType": "address",
          "name": "from",
          "type": "address"
        },
        {
          "internalType": "address",
          "name": "to",
          "type": "address"
        },
        {
          "internalType": "uint256",
          "name": "tokenId",
          "type": "uint256"
        },
        {
          "internalType": "bytes",
          "name": "data",
          "type": "bytes"
        }
      ],
      "name": "safeTransferFrom",
      "outputs": [],
      "stateMutability": "nonpayable",
      "type": "function"
    },
    {
      "inputs": [
        {
          "internalType": "address",
          "name": "operator",
          "type": "address"
        },
        {
          "internalType": "bool",
          "name": "approved",
          "type": "bool"
        }
      ],
      "name": "setApprovalForAll",
      "outputs": [],
      "stateMutability": "nonpayable",
      "type": "function"
    },
    {
      "inputs": [
        {
          "internalType": "bytes4",
          "name": "interfaceId",
          "type": "bytes4"
        }
      ],
      "name": "supportsInterface",
      "outputs": [
        {
          "internalType": "bool",
          "name": "",
          "type": "bool"
        }
      ],
      "stateMutability": "view",
      "type": "function"
    },
    {
      "inputs": [],
      "name": "symbol",
      "outputs": [
        {
          "internalType": "string",
          "name": "",
          "type": "string"
        }
      ],
      "stateMutability": "view",
      "type": "function"
    },
    {
      "inputs": [
        {
          "internalType": "uint256",
          "name": "tokenId",
          "type": "uint256"
        }
      ],
      "name": "tokenURI",
      "outputs": [
        {
          "internalType": "string",
          "name": "",
          "type": "string"
        }
      ],
      "stateMutability": "view",
      "type": "function"
    },
    {
      "inputs": [
        {
          "internalType": "address",
          "name": "from",
          "type": "address"
        },
        {
          "internalType": "address",
          "name": "to",
          "type": "address"
        },
        {
          "internalType": "uint256",
          "name": "tokenId",
          "type": "uint256"
        }
      ],
      "name": "transferFrom",
      "outputs": [],
      "stateMutability": "nonpayable",
      "type": "function"
    }
  ],
  "bytecode": {
    "object": "0x6080604052600680546001600160a01b031916331790553480156200002357600080fd5b506040516200150f3803806200150f8339810160408190526200004691620000e4565b6040518060400160405280601481526020017f446f6e27742073656e64204e465420746f206d65000000000000000000000000815250604051806040016040528060058152602001641393d3919560da1b8152508160009081620000ab9190620001bb565b506001620000ba8282620001bb565b5050600780546001600160a01b0319166001600160a01b0393909316929092179091555062000287565b600060208284031215620000f757600080fd5b81516001600160a01b03811681146200010f57600080fd5b9392505050565b634e487b7160e01b600052604160045260246000fd5b600181811c908216806200014157607f821691505b6020821081036200016257634e487b7160e01b600052602260045260246000fd5b50919050565b601f821115620001b657600081815260208120601f850160051c81016020861015620001915750805b601f850160051c820191505b81811015620001b2578281556001016200019d565b5050505b505050565b81516001600160401b03811115620001d757620001d762000116565b620001ef81620001e884546200012c565b8462000168565b602080601f8311600181146200022757600084156200020e5750858301515b600019600386901b1c1916600185901b178555620001b2565b600085815260208120601f198616915b82811015620002585788860151825594840194600190910190840162000237565b5085821015620002775787850151600019600388901b60f8161c191681555b5050505050600190811b01905550565b61127880620002976000396000f3fe608060405234801561001057600080fd5b50600436106101215760003560e01c806342966c68116100ad578063b2bdfa7b11610071578063b2bdfa7b1461027b578063b88d4fde1461028e578063c87b56dd146102a1578063e985e9c5146102b4578063fd06b380146102c757600080fd5b806342966c68146102195780636352211e1461022c57806370a082311461023f57806395d89b4114610260578063a22cb4651461026857600080fd5b8063150b7a02116100f4578063150b7a02146101a357806320a03b7b146101cf57806323b872dd146101e057806340c10f19146101f357806342842e0e1461020657600080fd5b806301ffc9a71461012657806306fdde031461014e578063081812fc14610163578063095ea7b31461018e575b600080fd5b610139610134366004610dd3565b6102da565b60405190151581526020015b60405180910390f35b61015661032c565b6040516101459190610e40565b610176610171366004610e53565b6103be565b6040516001600160a01b039091168152602001610145565b6101a161019c366004610e88565b6103e7565b005b6101b66101b1366004610eb2565b6103f6565b6040516001600160e01b03199091168152602001610145565b6007546001600160a01b0316610176565b6101a16101ee366004610f4d565b6104f6565b610139610201366004610e88565b610586565b6101a1610214366004610f4d565b61059b565b6101a1610227366004610e53565b6105bb565b61017661023a366004610e53565b6105c7565b61025261024d366004610f89565b6105d2565b604051908152602001610145565b61015661061a565b6101a1610276366004610fb2565b610629565b600654610176906001600160a01b031681565b6101a161029c366004610fff565b610634565b6101566102af366004610e53565b61064b565b6101396102c23660046110db565b6106e5565b600754610176906001600160a01b031681565b60006001600160e01b031982166380ac58cd60e01b148061030b57506001600160e01b03198216635b5e139f60e01b145b8061032657506301ffc9a760e01b6001600160e01b03198316145b92915050565b60606000805461033b9061110e565b80601f01602080910402602001604051908101604052809291908181526020018280546103679061110e565b80156103b45780601f10610389576101008083540402835291602001916103b4565b820191906000526020600020905b81548152906001019060200180831161039757829003601f168201915b5050505050905090565b60006103c982610713565b506000828152600460205260409020546001600160a01b0316610326565b6103f282823361074c565b5050565b6007543095506000906001600160a01b031633146104e457604051635c46a7ef60e11b8152339063b88d4fde906104399089908990899089908990600401611148565b600060405180830381600087803b15801561045357600080fd5b505af1158015610467573d6000803e3d6000fd5b50506007546040516340c10f1960e01b81526001600160a01b0389811660048301526024820189905290911692506340c10f1991506044016020604051808303816000875af11580156104be573d6000803e3d6000fd5b505050506040513d601f19601f820116820180604052508101906104e2919061119c565b505b50630a85bd0160e11b95945050505050565b6001600160a01b03821661052557604051633250574960e11b8152600060048201526024015b60405180910390fd5b6000610532838333610759565b9050836001600160a01b0316816001600160a01b031614610580576040516364283d7b60e01b81526001600160a01b038086166004830152602482018490528216604482015260640161051c565b50505050565b60006105928383610852565b50600192915050565b6105b683838360405180602001604052806000815250610634565b505050565b6103f260008233610759565b600061032682610713565b60006001600160a01b0382166105fe576040516322718ad960e21b81526000600482015260240161051c565b506001600160a01b031660009081526003602052604090205490565b60606001805461033b9061110e565b6103f23383836108b7565b61063f8484846104f6565b61058084848484610956565b606061065682610713565b50600061069360408051808201909152601981527f68747470733a2f2f696d6775722e636f6d2f4942446930326600000000000000602082015290565b905060008151116106b357604051806020016040528060008152506106de565b806106bd84610a7f565b6040516020016106ce9291906111b9565b6040516020818303038152906040525b9392505050565b6001600160a01b03918216600090815260056020908152604080832093909416825291909152205460ff1690565b6000818152600260205260408120546001600160a01b03168061032657604051637e27328960e01b81526004810184905260240161051c565b6105b68383836001610b12565b6000828152600260205260408120546001600160a01b039081169083161561078657610786818486610c18565b6001600160a01b038116156107c4576107a3600085600080610b12565b6001600160a01b038116600090815260036020526040902080546000190190555b6001600160a01b038516156107f3576001600160a01b0385166000908152600360205260409020805460010190555b60008481526002602052604080822080546001600160a01b0319166001600160a01b0389811691821790925591518793918516917fddf252ad1be2c89b69c2b068fc378daa952ba7f163c4a11628f55a4df523b3ef91a4949350505050565b6001600160a01b03821661087c57604051633250574960e11b81526000600482015260240161051c565b600061088a83836000610759565b90506001600160a01b038116156105b6576040516339e3563760e11b81526000600482015260240161051c565b6001600160a01b0382166108e957604051630b61174360e31b81526001600160a01b038316600482015260240161051c565b6001600160a01b03838116600081815260056020908152604080832094871680845294825291829020805460ff191686151590811790915591519182527f17307eab39ab6107e8899845ad3d59bd9653f200f220920489ca2b5937696c31910160405180910390a3505050565b6001600160a01b0383163b1561058057604051630a85bd0160e11b81526001600160a01b0384169063150b7a02906109989033908890879087906004016111e8565b6020604051808303816000875af19250505080156109d3575060408051601f3d908101601f191682019092526109d091810190611225565b60015b610a3c573d808015610a01576040519150601f19603f3d011682016040523d82523d6000602084013e610a06565b606091505b508051600003610a3457604051633250574960e11b81526001600160a01b038516600482015260240161051c565b805181602001fd5b6001600160e01b03198116630a85bd0160e11b14610a7857604051633250574960e11b81526001600160a01b038516600482015260240161051c565b5050505050565b60606000610a8c83610c7c565b600101905060008167ffffffffffffffff811115610aac57610aac610fe9565b6040519080825280601f01601f191660200182016040528015610ad6576020820181803683370190505b5090508181016020015b600019016f181899199a1a9b1b9c1cb0b131b232b360811b600a86061a8153600a8504945084610ae057509392505050565b8080610b2657506001600160a01b03821615155b15610be8576000610b3684610713565b90506001600160a01b03831615801590610b625750826001600160a01b0316816001600160a01b031614155b8015610b755750610b7381846106e5565b155b15610b9e5760405163a9fbf51f60e01b81526001600160a01b038416600482015260240161051c565b8115610be65783856001600160a01b0316826001600160a01b03167f8c5be1e5ebec7d5bd14f71427d1e84f3dd0314c0f7b2291e5b200ac8c7c3b92560405160405180910390a45b505b5050600090815260046020526040902080546001600160a01b0319166001600160a01b0392909216919091179055565b610c23838383610d54565b6105b6576001600160a01b038316610c5157604051637e27328960e01b81526004810182905260240161051c565b60405163177e802f60e01b81526001600160a01b03831660048201526024810182905260440161051c565b60008072184f03e93ff9f4daa797ed6e38ed64bf6a1f0160401b8310610cbb5772184f03e93ff9f4daa797ed6e38ed64bf6a1f0160401b830492506040015b6d04ee2d6d415b85acef81000000008310610ce7576d04ee2d6d415b85acef8100000000830492506020015b662386f26fc100008310610d0557662386f26fc10000830492506010015b6305f5e1008310610d1d576305f5e100830492506008015b6127108310610d3157612710830492506004015b60648310610d43576064830492506002015b600a83106103265760010192915050565b60006001600160a01b03831615801590610db25750826001600160a01b0316846001600160a01b03161480610d8e5750610d8e84846106e5565b80610db257506000828152600460205260409020546001600160a01b038481169116145b949350505050565b6001600160e01b031981168114610dd057600080fd5b50565b600060208284031215610de557600080fd5b81356106de81610dba565b60005b83811015610e0b578181015183820152602001610df3565b50506000910152565b60008151808452610e2c816020860160208601610df0565b601f01601f19169290920160200192915050565b6020815260006106de6020830184610e14565b600060208284031215610e6557600080fd5b5035919050565b80356001600160a01b0381168114610e8357600080fd5b919050565b60008060408385031215610e9b57600080fd5b610ea483610e6c565b946020939093013593505050565b600080600080600060808688031215610eca57600080fd5b610ed386610e6c565b9450610ee160208701610e6c565b935060408601359250606086013567ffffffffffffffff80821115610f0557600080fd5b818801915088601f830112610f1957600080fd5b813581811115610f2857600080fd5b896020828501011115610f3a57600080fd5b9699959850939650602001949392505050565b600080600060608486031215610f6257600080fd5b610f6b84610e6c565b9250610f7960208501610e6c565b9150604084013590509250925092565b600060208284031215610f9b57600080fd5b6106de82610e6c565b8015158114610dd057600080fd5b60008060408385031215610fc557600080fd5b610fce83610e6c565b91506020830135610fde81610fa4565b809150509250929050565b634e487b7160e01b600052604160045260246000fd5b6000806000806080858703121561101557600080fd5b61101e85610e6c565b935061102c60208601610e6c565b925060408501359150606085013567ffffffffffffffff8082111561105057600080fd5b818701915087601f83011261106457600080fd5b81358181111561107657611076610fe9565b604051601f8201601f19908116603f0116810190838211818310171561109e5761109e610fe9565b816040528281528a60208487010111156110b757600080fd5b82602086016020830137600060208483010152809550505050505092959194509250565b600080604083850312156110ee57600080fd5b6110f783610e6c565b915061110560208401610e6c565b90509250929050565b600181811c9082168061112257607f821691505b60208210810361114257634e487b7160e01b600052602260045260246000fd5b50919050565b6001600160a01b038681168252851660208201526040810184905260806060820181905281018290526000828460a0840137600060a0848401015260a0601f19601f85011683010190509695505050505050565b6000602082840312156111ae57600080fd5b81516106de81610fa4565b600083516111cb818460208801610df0565b8351908301906111df818360208801610df0565b01949350505050565b6001600160a01b038581168252841660208201526040810183905260806060820181905260009061121b90830184610e14565b9695505050505050565b60006020828403121561123757600080fd5b81516106de81610dba56fea26469706673582212203ee74704821b2e5934ae7e2af38913fa73c2661193497b6f96bd1c81172e241764736f6c63430008150033",
    "linkReferences": {}
  },
  "methodIdentifiers": {
    "_owner()": "b2bdfa7b",
    "approve(address,uint256)": "095ea7b3",
    "balanceOf(address)": "70a08231",
    "burn(uint256)": "42966c68",
    "getApproved(uint256)": "081812fc",
    "hwToken()": "fd06b380",
    "isApprovedForAll(address,address)": "e985e9c5",
    "mint(address,uint256)": "40c10f19",
    "name()": "06fdde03",
    "onERC721Received(address,address,uint256,bytes)": "150b7a02",
    "ownerOf(uint256)": "6352211e",
    "queryHwToken()": "20a03b7b",
    "safeTransferFrom(address,address,uint256)": "42842e0e",
    "safeTransferFrom(address,address,uint256,bytes)": "b88d4fde",
    "setApprovalForAll(address,bool)": "a22cb465",
    "supportsInterface(bytes4)": "01ffc9a7",
    "symbol()": "95d89b41",
    "tokenURI(uint256)": "c87b56dd",
    "transferFrom(address,address,uint256)": "23b872dd"
  },
  "id": 31
}