{
  "abi": [
    {
      "inputs": [
        {
          "internalType": "address",
          "name": "initialOwner",
          "type": "address"
        }
      ],
      "stateMutability": "nonpayable",
      "type": "constructor"
    },
    {
      "inputs": [
        {
          "internalType": "address",
          "name": "sender",
          "type": "address"
        },
        {
          "internalType": "uint256",
          "name": "tokenId",
          "type": "uint256"
        },
        {
          "internalType": "address",
          "name": "owner",
          "type": "address"
        }
      ],
      "name": "ERC721IncorrectOwner",
      "type": "error"
    },
    {
      "inputs": [
        {
          "internalType": "address",
          "name": "operator",
          "type": "address"
        },
        {
          "internalType": "uint256",
          "name": "tokenId",
          "type": "uint256"
        }
      ],
      "name": "ERC721InsufficientApproval",
      "type": "error"
    },
    {
      "inputs": [
        {
          "internalType": "address",
          "name": "approver",
          "type": "address"
        }
      ],
      "name": "ERC721InvalidApprover",
      "type": "error"
    },
    {
      "inputs": [
        {
          "internalType": "address",
          "name": "operator",
          "type": "address"
        }
      ],
      "name": "ERC721InvalidOperator",
      "type": "error"
    },
    {
      "inputs": [
        {
          "internalType": "address",
          "name": "owner",
          "type": "address"
        }
      ],
      "name": "ERC721InvalidOwner",
      "type": "error"
    },
    {
      "inputs": [
        {
          "internalType": "address",
          "name": "receiver",
          "type": "address"
        }
      ],
      "name": "ERC721InvalidReceiver",
      "type": "error"
    },
    {
      "inputs": [
        {
          "internalType": "address",
          "name": "sender",
          "type": "address"
        }
      ],
      "name": "ERC721InvalidSender",
      "type": "error"
    },
    {
      "inputs": [
        {
          "internalType": "uint256",
          "name": "tokenId",
          "type": "uint256"
        }
      ],
      "name": "ERC721NonexistentToken",
      "type": "error"
    },
    {
      "inputs": [
        {
          "internalType": "address",
          "name": "owner",
          "type": "address"
        }
      ],
      "name": "OwnableInvalidOwner",
      "type": "error"
    },
    {
      "inputs": [
        {
          "internalType": "address",
          "name": "account",
          "type": "address"
        }
      ],
      "name": "OwnableUnauthorizedAccount",
      "type": "error"
    },
    {
      "anonymous": false,
      "inputs": [
        {
          "indexed": true,
          "internalType": "address",
          "name": "owner",
          "type": "address"
        },
        {
          "indexed": true,
          "internalType": "address",
          "name": "approved",
          "type": "address"
        },
        {
          "indexed": true,
          "internalType": "uint256",
          "name": "tokenId",
          "type": "uint256"
        }
      ],
      "name": "Approval",
      "type": "event"
    },
    {
      "anonymous": false,
      "inputs": [
        {
          "indexed": true,
          "internalType": "address",
          "name": "owner",
          "type": "address"
        },
        {
          "indexed": true,
          "internalType": "address",
          "name": "operator",
          "type": "address"
        },
        {
          "indexed": false,
          "internalType": "bool",
          "name": "approved",
          "type": "bool"
        }
      ],
      "name": "ApprovalForAll",
      "type": "event"
    },
    {
      "anonymous": false,
      "inputs": [
        {
          "indexed": true,
          "internalType": "address",
          "name": "previousOwner",
          "type": "address"
        },
        {
          "indexed": true,
          "internalType": "address",
          "name": "newOwner",
          "type": "address"
        }
      ],
      "name": "OwnershipTransferred",
      "type": "event"
    },
    {
      "anonymous": false,
      "inputs": [
        {
          "indexed": true,
          "internalType": "address",
          "name": "from",
          "type": "address"
        },
        {
          "indexed": true,
          "internalType": "address",
          "name": "to",
          "type": "address"
        },
        {
          "indexed": true,
          "internalType": "uint256",
          "name": "tokenId",
          "type": "uint256"
        }
      ],
      "name": "Transfer",
      "type": "event"
    },
    {
      "inputs": [
        {
          "internalType": "address",
          "name": "to",
          "type": "address"
        },
        {
          "internalType": "uint256",
          "name": "tokenId",
          "type": "uint256"
        }
      ],
      "name": "approve",
      "outputs": [],
      "stateMutability": "nonpayable",
      "type": "function"
    },
    {
      "inputs": [
        {
          "internalType": "address",
          "name": "owner",
          "type": "address"
        }
      ],
      "name": "balanceOf",
      "outputs": [
        {
          "internalType": "uint256",
          "name": "",
          "type": "uint256"
        }
      ],
      "stateMutability": "view",
      "type": "function"
    },
    {
      "inputs": [
        {
          "internalType": "uint256",
          "name": "tokenId",
          "type": "uint256"
        }
      ],
      "name": "burn",
      "outputs": [],
      "stateMutability": "nonpayable",
      "type": "function"
    },
    {
      "inputs": [
        {
          "internalType": "uint256",
          "name": "tokenId",
          "type": "uint256"
        }
      ],
      "name": "getApproved",
      "outputs": [
        {
          "internalType": "address",
          "name": "",
          "type": "address"
        }
      ],
      "stateMutability": "view",
      "type": "function"
    },
    {
      "inputs": [
        {
          "internalType": "address",
          "name": "owner",
          "type": "address"
        },
        {
          "internalType": "address",
          "name": "operator",
          "type": "address"
        }
      ],
      "name": "isApprovedForAll",
      "outputs": [
        {
          "internalType": "bool",
          "name": "",
          "type": "bool"
        }
      ],
      "stateMutability": "view",
      "type": "function"
    },
    {
      "inputs": [
        {
          "internalType": "address",
          "name": "to",
          "type": "address"
        },
        {
          "internalType": "uint256",
          "name": "tokenId",
          "type": "uint256"
        }
      ],
      "name": "mint",
      "outputs": [],
      "stateMutability": "nonpayable",
      "type": "function"
    },
    {
      "inputs": [],
      "name": "name",
      "outputs": [
        {
          "internalType": "string",
          "name": "",
          "type": "string"
        }
      ],
      "stateMutability": "view",
      "type": "function"
    },
    {
      "inputs": [],
      "name": "owner",
      "outputs": [
        {
          "internalType": "address",
          "name": "",
          "type": "address"
        }
      ],
      "stateMutability": "view",
      "type": "function"
    },
    {
      "inputs": [
        {
          "internalType": "uint256",
          "name": "tokenId",
          "type": "uint256"
        }
      ],
      "name": "ownerOf",
      "outputs": [
        {
          "internalType": "address",
          "name": "",
          "type": "address"
        }
      ],
      "stateMutability": "view",
      "type": "function"
    },
    {
      "inputs": [],
      "name": "renounceOwnership",
      "outputs": [],
      "stateMutability": "nonpayable",
      "type": "function"
    },
    {
      "inputs": [
        {
          "internalType": "address",
          "name": "from",
          "type": "address"
        },
        {
          "internalType": "address",
          "name": "to",
          "type": "address"
        },
        {
          "internalType": "uint256",
          "name": "tokenId",
          "type": "uint256"
        }
      ],
      "name": "safeTransferFrom",
      "outputs": [],
      "stateMutability": "nonpayable",
      "type": "function"
    },
    {
      "inputs": [
        {
          "internalType": "address",
          "name": "from",
          "type": "address"
        },
        {
          "internalType": "address",
          "name": "to",
          "type": "address"
        },
        {
          "internalType": "uint256",
          "name": "tokenId",
          "type": "uint256"
        },
        {
          "internalType": "bytes",
          "name": "data",
          "type": "bytes"
        }
      ],
      "name": "safeTransferFrom",
      "outputs": [],
      "stateMutability": "nonpayable",
      "type": "function"
    },
    {
      "inputs": [
        {
          "internalType": "address",
          "name": "from",
          "type": "address"
        },
        {
          "internalType": "address",
          "name": "to",
          "type": "address"
        },
        {
          "internalType": "uint256",
          "name": "tokenId",
          "type": "uint256"
        }
      ],
      "name": "safeTransferFrom_",
      "outputs": [],
      "stateMutability": "nonpayable",
      "type": "function"
    },
    {
      "inputs": [
        {
          "internalType": "address",
          "name": "operator",
          "type": "address"
        },
        {
          "internalType": "bool",
          "name": "approved",
          "type": "bool"
        }
      ],
      "name": "setApprovalForAll",
      "outputs": [],
      "stateMutability": "nonpayable",
      "type": "function"
    },
    {
      "inputs": [
        {
          "internalType": "bytes4",
          "name": "interfaceId",
          "type": "bytes4"
        }
      ],
      "name": "supportsInterface",
      "outputs": [
        {
          "internalType": "bool",
          "name": "",
          "type": "bool"
        }
      ],
      "stateMutability": "view",
      "type": "function"
    },
    {
      "inputs": [],
      "name": "symbol",
      "outputs": [
        {
          "internalType": "string",
          "name": "",
          "type": "string"
        }
      ],
      "stateMutability": "view",
      "type": "function"
    },
    {
      "inputs": [
        {
          "internalType": "uint256",
          "name": "tokenId",
          "type": "uint256"
        }
      ],
      "name": "tokenURI",
      "outputs": [
        {
          "internalType": "string",
          "name": "",
          "type": "string"
        }
      ],
      "stateMutability": "view",
      "type": "function"
    },
    {
      "inputs": [
        {
          "internalType": "address",
          "name": "from",
          "type": "address"
        },
        {
          "internalType": "address",
          "name": "to",
          "type": "address"
        },
        {
          "internalType": "uint256",
          "name": "tokenId",
          "type": "uint256"
        }
      ],
      "name": "transferFrom",
      "outputs": [],
      "stateMutability": "nonpayable",
      "type": "function"
    },
    {
      "inputs": [
        {
          "internalType": "address",
          "name": "newOwner",
          "type": "address"
        }
      ],
      "name": "transferOwnership",
      "outputs": [],
      "stateMutability": "nonpayable",
      "type": "function"
    }
  ],
  "bytecode": {
    "object": "0x60806040523480156200001157600080fd5b50604051620014a9380380620014a9833981016040819052620000349162000130565b806040518060400160405280600d81526020016c139bc81d5cd9599d5b08139195609a1b81525060405180604001604052806005815260200164155393919560da1b81525081600090816200008a919062000207565b50600162000099828262000207565b5050506001600160a01b038116620000cb57604051631e4fbdf760e01b81526000600482015260240160405180910390fd5b620000d681620000de565b5050620002d3565b600680546001600160a01b038381166001600160a01b0319831681179093556040519116919082907f8be0079c531659141344cd1fd0a4f28419497f9722a3daafe3b4186f6b6457e090600090a35050565b6000602082840312156200014357600080fd5b81516001600160a01b03811681146200015b57600080fd5b9392505050565b634e487b7160e01b600052604160045260246000fd5b600181811c908216806200018d57607f821691505b602082108103620001ae57634e487b7160e01b600052602260045260246000fd5b50919050565b601f8211156200020257600081815260208120601f850160051c81016020861015620001dd5750805b601f850160051c820191505b81811015620001fe57828155600101620001e9565b5050505b505050565b81516001600160401b0381111562000223576200022362000162565b6200023b8162000234845462000178565b84620001b4565b602080601f8311600181146200027357600084156200025a5750858301515b600019600386901b1c1916600185901b178555620001fe565b600085815260208120601f198616915b82811015620002a45788860151825594840194600190910190840162000283565b5085821015620002c35787850151600019600388901b60f8161c191681555b5050505050600190811b01905550565b6111c680620002e36000396000f3fe608060405234801561001057600080fd5b50600436106101215760003560e01c80636352211e116100ad578063a22cb46511610071578063a22cb46514610257578063b88d4fde1461026a578063c87b56dd1461027d578063e985e9c514610290578063f2fde38b146102a357600080fd5b80636352211e1461020257806370a0823114610215578063715018a6146102365780638da5cb5b1461023e57806395d89b411461024f57600080fd5b8063207dfdf9116100f4578063207dfdf9146101a357806323b872dd146101b657806340c10f19146101c957806342842e0e146101dc57806342966c68146101ef57600080fd5b806301ffc9a71461012657806306fdde031461014e578063081812fc14610163578063095ea7b31461018e575b600080fd5b610139610134366004610e36565b6102b6565b60405190151581526020015b60405180910390f35b610156610308565b6040516101459190610ea3565b610176610171366004610eb6565b61039a565b6040516001600160a01b039091168152602001610145565b6101a161019c366004610eeb565b6103c3565b005b6101a16101b1366004610f15565b6103d2565b6101a16101c4366004610f15565b6103e2565b6101a16101d7366004610eeb565b610472565b6101a16101ea366004610f15565b610484565b6101a16101fd366004610eb6565b61049f565b610176610210366004610eb6565b6104ab565b610228610223366004610f51565b6104b6565b604051908152602001610145565b6101a16104fe565b6006546001600160a01b0316610176565b610156610512565b6101a1610265366004610f6c565b610521565b6101a1610278366004610fbe565b61052c565b61015661028b366004610eb6565b610543565b61013961029e36600461109a565b6105b8565b6101a16102b1366004610f51565b6105e6565b60006001600160e01b031982166380ac58cd60e01b14806102e757506001600160e01b03198216635b5e139f60e01b145b8061030257506301ffc9a760e01b6001600160e01b03198316145b92915050565b606060008054610317906110cd565b80601f0160208091040260200160405190810160405280929190818152602001828054610343906110cd565b80156103905780601f1061036557610100808354040283529160200191610390565b820191906000526020600020905b81548152906001019060200180831161037357829003601f168201915b5050505050905090565b60006103a582610624565b506000828152600460205260409020546001600160a01b0316610302565b6103ce82823361065d565b5050565b6103dd83838361066a565b505050565b6001600160a01b03821661041157604051633250574960e11b8152600060048201526024015b60405180910390fd5b600061041e838333610685565b9050836001600160a01b0316816001600160a01b03161461046c576040516364283d7b60e01b81526001600160a01b0380861660048301526024820184905282166044820152606401610408565b50505050565b61047a61077e565b6103ce82826107ab565b6103dd8383836040518060200160405280600081525061052c565b6103ce60008233610685565b600061030282610624565b60006001600160a01b0382166104e2576040516322718ad960e21b815260006004820152602401610408565b506001600160a01b031660009081526003602052604090205490565b61050661077e565b6105106000610810565b565b606060018054610317906110cd565b6103ce338383610862565b6105378484846103e2565b61046c84848484610901565b606061054e82610624565b50600061056660408051602081019091526000815290565b9050600081511161058657604051806020016040528060008152506105b1565b8061059084610a2a565b6040516020016105a1929190611107565b6040516020818303038152906040525b9392505050565b6001600160a01b03918216600090815260056020908152604080832093909416825291909152205460ff1690565b6105ee61077e565b6001600160a01b03811661061857604051631e4fbdf760e01b815260006004820152602401610408565b61062181610810565b50565b6000818152600260205260408120546001600160a01b03168061030257604051637e27328960e01b815260048101849052602401610408565b6103dd8383836001610abd565b6103dd83838360405180602001604052806000815250610bc3565b6000828152600260205260408120546001600160a01b03908116908316156106b2576106b2818486610bce565b6001600160a01b038116156106f0576106cf600085600080610abd565b6001600160a01b038116600090815260036020526040902080546000190190555b6001600160a01b0385161561071f576001600160a01b0385166000908152600360205260409020805460010190555b60008481526002602052604080822080546001600160a01b0319166001600160a01b0389811691821790925591518793918516917fddf252ad1be2c89b69c2b068fc378daa952ba7f163c4a11628f55a4df523b3ef91a4949350505050565b6006546001600160a01b031633146105105760405163118cdaa760e01b8152336004820152602401610408565b6001600160a01b0382166107d557604051633250574960e11b815260006004820152602401610408565b60006107e383836000610685565b90506001600160a01b038116156103dd576040516339e3563760e11b815260006004820152602401610408565b600680546001600160a01b038381166001600160a01b0319831681179093556040519116919082907f8be0079c531659141344cd1fd0a4f28419497f9722a3daafe3b4186f6b6457e090600090a35050565b6001600160a01b03821661089457604051630b61174360e31b81526001600160a01b0383166004820152602401610408565b6001600160a01b03838116600081815260056020908152604080832094871680845294825291829020805460ff191686151590811790915591519182527f17307eab39ab6107e8899845ad3d59bd9653f200f220920489ca2b5937696c31910160405180910390a3505050565b6001600160a01b0383163b1561046c57604051630a85bd0160e11b81526001600160a01b0384169063150b7a0290610943903390889087908790600401611136565b6020604051808303816000875af192505050801561097e575060408051601f3d908101601f1916820190925261097b91810190611173565b60015b6109e7573d8080156109ac576040519150601f19603f3d011682016040523d82523d6000602084013e6109b1565b606091505b5080516000036109df57604051633250574960e11b81526001600160a01b0385166004820152602401610408565b805181602001fd5b6001600160e01b03198116630a85bd0160e11b14610a2357604051633250574960e11b81526001600160a01b0385166004820152602401610408565b5050505050565b60606000610a3783610c32565b600101905060008167ffffffffffffffff811115610a5757610a57610fa8565b6040519080825280601f01601f191660200182016040528015610a81576020820181803683370190505b5090508181016020015b600019016f181899199a1a9b1b9c1cb0b131b232b360811b600a86061a8153600a8504945084610a8b57509392505050565b8080610ad157506001600160a01b03821615155b15610b93576000610ae184610624565b90506001600160a01b03831615801590610b0d5750826001600160a01b0316816001600160a01b031614155b8015610b205750610b1e81846105b8565b155b15610b495760405163a9fbf51f60e01b81526001600160a01b0384166004820152602401610408565b8115610b915783856001600160a01b0316826001600160a01b03167f8c5be1e5ebec7d5bd14f71427d1e84f3dd0314c0f7b2291e5b200ac8c7c3b92560405160405180910390a45b505b5050600090815260046020526040902080546001600160a01b0319166001600160a01b0392909216919091179055565b610537848484610d0a565b610bd9838383610dba565b6103dd576001600160a01b038316610c0757604051637e27328960e01b815260048101829052602401610408565b60405163177e802f60e01b81526001600160a01b038316600482015260248101829052604401610408565b60008072184f03e93ff9f4daa797ed6e38ed64bf6a1f0160401b8310610c715772184f03e93ff9f4daa797ed6e38ed64bf6a1f0160401b830492506040015b6d04ee2d6d415b85acef81000000008310610c9d576d04ee2d6d415b85acef8100000000830492506020015b662386f26fc100008310610cbb57662386f26fc10000830492506010015b6305f5e1008310610cd3576305f5e100830492506008015b6127108310610ce757612710830492506004015b60648310610cf9576064830492506002015b600a83106103025760010192915050565b6001600160a01b038216610d3457604051633250574960e11b815260006004820152602401610408565b6000610d4283836000610685565b90506001600160a01b038116610d6e57604051637e27328960e01b815260048101839052602401610408565b836001600160a01b0316816001600160a01b03161461046c576040516364283d7b60e01b81526001600160a01b0380861660048301526024820184905282166044820152606401610408565b60006001600160a01b03831615801590610e185750826001600160a01b0316846001600160a01b03161480610df45750610df484846105b8565b80610e1857506000828152600460205260409020546001600160a01b038481169116145b949350505050565b6001600160e01b03198116811461062157600080fd5b600060208284031215610e4857600080fd5b81356105b181610e20565b60005b83811015610e6e578181015183820152602001610e56565b50506000910152565b60008151808452610e8f816020860160208601610e53565b601f01601f19169290920160200192915050565b6020815260006105b16020830184610e77565b600060208284031215610ec857600080fd5b5035919050565b80356001600160a01b0381168114610ee657600080fd5b919050565b60008060408385031215610efe57600080fd5b610f0783610ecf565b946020939093013593505050565b600080600060608486031215610f2a57600080fd5b610f3384610ecf565b9250610f4160208501610ecf565b9150604084013590509250925092565b600060208284031215610f6357600080fd5b6105b182610ecf565b60008060408385031215610f7f57600080fd5b610f8883610ecf565b915060208301358015158114610f9d57600080fd5b809150509250929050565b634e487b7160e01b600052604160045260246000fd5b60008060008060808587031215610fd457600080fd5b610fdd85610ecf565b9350610feb60208601610ecf565b925060408501359150606085013567ffffffffffffffff8082111561100f57600080fd5b818701915087601f83011261102357600080fd5b81358181111561103557611035610fa8565b604051601f8201601f19908116603f0116810190838211818310171561105d5761105d610fa8565b816040528281528a602084870101111561107657600080fd5b82602086016020830137600060208483010152809550505050505092959194509250565b600080604083850312156110ad57600080fd5b6110b683610ecf565b91506110c460208401610ecf565b90509250929050565b600181811c908216806110e157607f821691505b60208210810361110157634e487b7160e01b600052602260045260246000fd5b50919050565b60008351611119818460208801610e53565b83519083019061112d818360208801610e53565b01949350505050565b6001600160a01b038581168252841660208201526040810183905260806060820181905260009061116990830184610e77565b9695505050505050565b60006020828403121561118557600080fd5b81516105b181610e2056fea2646970667358221220164fe8204b004df4a6bfddc4e9e61d3cf0d1e8b70c014066c77097e55503b0f964736f6c63430008150033",
    "linkReferences": {}
  },
  "methodIdentifiers": {
    "approve(address,uint256)": "095ea7b3",
    "balanceOf(address)": "70a08231",
    "burn(uint256)": "42966c68",
    "getApproved(uint256)": "081812fc",
    "isApprovedForAll(address,address)": "e985e9c5",
    "mint(address,uint256)": "40c10f19",
    "name()": "06fdde03",
    "owner()": "8da5cb5b",
    "ownerOf(uint256)": "6352211e",
    "renounceOwnership()": "715018a6",
    "safeTransferFrom(address,address,uint256)": "42842e0e",
    "safeTransferFrom(address,address,uint256,bytes)": "b88d4fde",
    "safeTransferFrom_(address,address,uint256)": "207dfdf9",
    "setApprovalForAll(address,bool)": "a22cb465",
    "supportsInterface(bytes4)": "01ffc9a7",
    "symbol()": "95d89b41",
    "tokenURI(uint256)": "c87b56dd",
    "transferFrom(address,address,uint256)": "23b872dd",
    "transferOwnership(address)": "f2fde38b"
  },
  "id": 13
}